:020000040800F2
:100000002813002045010008FD1E00086D1E000891
:10001000C51E0008490E00087D51000800000000C0
:100020000000000000000000000000005937000838
:100030004519000800000000252000088141000843
:10004000DD5100085F0100085F010008BD240008C1
:100050005F0100085F0100085F0100085F01000800
:100060005F0100085F0100085F0100085F010008F0
:100070005F0100085F0100085F0100085F010008E0
:100080005F0100085F0100085F0100085F010008D0
:100090005F0100085F0100085F0100085F010008C0
:1000A0005F0100085F0100085F0100085F010008B0
:1000B000B5420008594300085F0100085F010008CD
:1000C0005F0100085F0100085F0100085F01000890
:1000D0005F010008794A0008D54B0008294D000847
:1000E0005F010008752300085F0100085F01000838
:1000F0005F0100085F0100085F0100085F01000860
:100100005F0100085F0100085F0100085F0100084F
:10011000754800085F0100085F0100085F010008E2
:100120005F0100085F0100085F0100085F0100082F
:10013000DFF80CD000F0F2FB00480047B160000887
:10014000281300200648804706480047FEE7FEE7E0
:10015000FEE7FEE7FEE7FEE7FEE7FEE7FEE7FEE777
:10016000054200083101000840EA01039B0703D063
:1001700009E008C9121F08C0042AFAD203E011F8E6
:10018000013B00F8013B521EF9D27047D2B201E0A8
:1001900000F8012B491EFBD270470022F6E710B58C
:1001A00013460A4604461946FFF7F0FF204610BDE5
:1001B000421C10F8011B0029FBD1801A704780EA0D
:1001C000010210B502F00043400026D04A0023D0BF
:1001D0004FEA106101EB1261C0F35600C2F3560200
:1001E00040F4000042F40002A0FB0220A1F17F01D4
:1001F0004FEA0040140401D000F1010050EA12401F
:1002000001D44000491EC2B20C0604EBD010401CC1
:100210004008802A02D003E0002010BD20F0010039
:10022000002900DA0020184310BD30B480EA010232
:1002300002F0004530F0004221F0004015D0A0B19E
:10024000C0F3C753C2F3C754C2F31601C0F316007C
:10025000E41A41F4000140F400027D34914201D3DC
:10026000641C00E04900002C02DA30BC002070471A
:100270004FF400000023914201D3891A0343400840
:100280004FEA4101F7D151B1914202D14FF0004103
:1002900005E002D24FF0010101E06FF0010103EB34
:1002A000C450284430BC00F08BBA2DE9FE4F804684
:1002B00081EA0300C00F0C46009021F0004123F0BA
:1002C0000045B8EB0200A94105D2404621469046C0
:1002D0001C460B46024623F00040104304D1404622
:1002E000214603B0BDE8F08F270DC7F30A00C3F322
:1002F0000A510290401A0190402866DAC3F31300B5
:1003000040F4801B0098924620B10023D2EB030AF0
:1003100063EB0B0B01985946C0F14002504600F0C8
:100320001EFA06460D4650465946019A00F036FA26
:1003300010EB08006141002487EA115284EAE77358
:100340001A433BD0009A3AB3019A012A4FEA075266
:1003500010DC001B61EB02014FF0004202EA075281
:10036000CDE90042001C41F5801132462B4600F0D9
:100370006AFAB6E7001B61EB0201001C41F580132D
:1003800000185B412018A2F5001747EB030140EA73
:10039000D570B6196D4111E06D084FEA360645EA91
:1003A000C0754FEA0752001B61EB0201001C41F5CA
:1003B000801149084FEA30000019514132462B465E
:1003C00003B0BDE8F04F00F031BA009801224000C0
:1003D0000023D0EB020263EBE073009821464FEA62
:1003E000E074B8EB000061EB0401E9E783F000433F
:1003F0005BE781F0004158E72DE9FE4F81EA0304F5
:1004000004F0004421F0004100944FF0000B23F071
:10041000004350EA010402D052EA030404D1002050
:10042000014603B0BDE8F08FC3F30A54C1F30A5587
:100430002C44A4F2F3340194A0FB0254C1F3130141
:1004400041F48011C3F3130343F4801301FB02440E
:1004500000FB034E840A970A44EA815447EA835713
:10046000A4FB076802958D0A05FB07854FEA932CCC
:1004700004FB0C542705029D4FEA065847EA16373D
:10048000B5EB08056EEB070C870E920E47EA811755
:1004900042EA8312A7FB0201B6EB0B0164EB0004F6
:1004A0002B0D43EA0C335E1844EB1C50DA465146E0
:1004B000E7FB0201C5F313044FEA0B3343EA14537D
:1004C0004FEA0432019C43EA0603A4F10C040294AF
:1004D000009CCDE900B400F0B6F9A2E72DE9F04D9B
:1004E00081EA030404F0004B21F0004514464FF06C
:1004F000000A23F0004150EA050220D054EA01022C
:100500001DD0C5F30A570246C5F31303C1F3130008
:10051000C1F30A5640F4801543F48013A7EB060894
:10052000101BD64608F2FD3873EB050002D308F124
:10053000010801E092185B41B8F1000F03DA0020D6
:100540000146BDE8F08D00204FF480110646844638
:100550000EE0171B73EB050705D3121B63EB0503B6
:1005600006434CEA010C49084FEA300092185B41FF
:1005700050EA0107EDD152EA030012D082EA0400EA
:1005800083EA0501084303D100224FF0004308E04D
:10059000101BAB4102D20122002302E06FF00102E6
:1005A00053101AEB06004CEB085110EB0A0041EB1C
:1005B0000B01BDE8F04D00F039B9C10F80EAE070E1
:1005C0000844CA079623002100F003B996230022AD
:1005D000114600F0FEB80EB540F233410291002101
:1005E000CDE900110A460B4600F02DF903B000BD1D
:1005F00020F00040C10DC0F3160040F400007F2938
:1006000001DA00207047962903DCC1F19601C84049
:100610007047963988407047C1F30A5210B5C1F34C
:10062000130140F2FF3341F480119A4201DA0020B5
:1006300010BD40F233439A42A2F2334203DC5242ED
:1006400000F09CF810BD904010BD00F0004230F06A
:1006500000400AD0C10D01F56071C0F3160042EAF6
:100660000151C208400711437047002001467047FE
:1006700030B5002904DB4FF00044404264EB010137
:10068000002B04DB4FF00044524264EB0303994219
:1006900008BF904230BD000001F0004330B421F0AB
:1006A000004150EA010206D00A0DA2F56072C1F3C2
:1006B0001301002A02DC30BC00207047440F44EADA
:1006C000C104C100E01830BC00EBC25000F078B8A3
:1006D00030B50B46014600202022012409E021FA12
:1006E00002F59D4205D303FA02F5491B04FA02F50F
:1006F0002844151EA2F10102F1DC30BD2DE9F05FA6
:100700000546002092469B46884606468146402480
:100710001BE0284641464746224600F02FF8534644
:100720005A46C01A914110D311461846224600F08D
:1007300016F82D1A67EB01084F46224601200021CA
:1007400000F00DF817EB00094E41201EA4F1010442
:10075000DFDC484631462A464346BDE8F09F202A62
:1007600004DB203A00FA02F1002070479140C2F108
:10077000200320FA03F3194390407047202A04DB3A
:10078000203A21FA02F00021704721FA02F3D0400A
:10079000C2F120029140084319467047202A06DB27
:1007A000CB17203A41FA02F043EAE07306E041FA3F
:1007B00002F3D040C2F1200291400843194670472D
:1007C0000029A8BF7047401C490008BF20F0010065
:1007D000704710B4B0FA80FC00FA0CF050EA010443
:1007E00004BF10BC704749B1CCF1200421FA04F4D5
:1007F00011FA0CF118BF012121430843A3EB0C01AE
:10080000CB1D0106000A002BBEBF002010BC7047A4
:1008100000EBC35010440029A4BF10BC7047401C1B
:10082000490008BF20F0010010BC704710B5002B34
:1008300008DA401C41F1000192185B411A4301D1D2
:1008400020F0010010BD2DE9F04D92469B4611B1FC
:10085000B1FA81F202E0B0FA80F220329046FFF75E
:100860007EFF04460F4640EA0A0041EA0B01534668
:100870005A46084303D120463946BDE8F08D11465B
:1008800053EA010015D0C8F140025046FFF776FF49
:1008900005460E46504659464246FFF760FF08435C
:1008A00001D0012000E00020054346EAE0762C4319
:1008B00037430A984FEA4453A0EB08004FEAD42488
:1008C0000A304FF0000244EA47544FEAD72502D5D8
:1008D00000200146D1E7010510196941DDE908450D
:1008E00000196941BDE8F04DA0E7C1F30A52C1F318
:1008F000130140F2FF3341F480119A4202DA0020E2
:100900000146704740F233439A42A2F2334202DC7E
:100910005242FFF733BFFFF722BF0000064C074DDE
:1009200006E0E06840F0010394E8070098471034BF
:10093000AC42F6D3FFF700FC48680008686800087E
:1009400008B50121084601F005FC01214FF40470AF
:1009500001F030FC0120ADF8000000208DF803000C
:100960006946024801F0CBF808BD000000100140C4
:1009700010B5FFF7E5FF00F001F810BD00B591B02C
:10098000334800F0C7FC33480690334807900020F6
:1009900008900120099000200A900B904FF480707D
:1009A0000C9080000D9020200E9000020F900020EF
:1009B000109006A9264800F053FD0121244800F0BC
:1009C0009DFC002001908DF8080001208DF80900A1
:1009D0004FF4602003900020049001208DF8140053
:1009E00001A91C484C3800F063F84FF4404001F076
:1009F000A5FB05230122092116484C3800F080F898
:100A0000012114484C3800F034F8012111484C38C9
:100A100000F024F80F484C3800F0CEF800BF0D4825
:100A20004C3800F03BF80028F9D10A484C3800F067
:100A3000D3F800BF07484C3800F026F80028F9D159
:100A4000012104484C3800F0BCF811B000BD000092
:100A5000080002404C240140E800002021B18268D7
:100A600042F00102826003E0826822F001028260AB
:100A7000704721B1826842F48072826003E082682C
:100A800022F4807282607047014600208A6812F06A
:100A9000040F01D0012000E0002070470146002033
:100AA0008A6812F0080F01D0012000E00020704792
:100AB00030B502460020002350680F4C20400D79CD
:100AC0000C6844EA05242043506090680B4C204099
:100AD000D1E902542C434D7944EA45042043906007
:100AE000D06A20F470000C7C641EE4B2234340EA18
:100AF0000350D06230BD0000FFFEF0FFFDF7F1FFB4
:100B0000F0B504460D4600200021092D11DDE068F6
:100B1000A5F10A0606EB4607072606FA07F1884301
:100B2000A5F10A0606EB460603FA06F10843E06063
:100B30000CE0206905EB4507072606FA07F1884314
:100B400005EB450603FA06F108432061072A0FDA90
:100B5000606B561E06EB86071F2606FA07F18843D0
:100B6000561E06EB860605FA06F10843606322E08E
:100B70000D2A0FDA206BD61F06EB86071F2606FA12
:100B800007F18843D61F06EB860605FA06F10843EF
:100B9000206310E0E06AA2F10D0606EB86071F262F
:100BA00006FA07F18843A2F10D0606EB860605FA60
:100BB00006F10843E062F0BD816841F00801816000
:100BC000704721B1826842F4A002826003E082682B
:100BD00022F4A00282607047816841F004018160C4
:100BE000704700002DE9F04104460D461646FF2CE3
:100BF00003D90CA004F060FBFF240F2D03D90EA035
:100C000004F05AFB0F250F2E03D910A004F054FB5B
:100C10000F26200400EB053000EB06273846BDE820
:100C2000F0810000626C6F636B206D6178203A3256
:100C30003536212100000000736563746F72206DEA
:100C40006178203A3136212100000000706167652B
:100C5000206D6178203A31362121000010B5012045
:100C600001F0C8FA002001F0C5FA10BD08B5014630
:100C700000200090034800900098084400900098DD
:100C8000008808BD006C0040014908607047000002
:100C900000860D4208B500220092044A0092009A94
:100CA00002440092009A116008BD0000006C0040F0
:100CB00038B500200090002203211046FFF792FF74
:100CC000044602F0C1FB02F053FC144908604FF4E3
:100CD000487000F055FE02F06BFC114908600F48A7
:100CE0000268084601680FA004F0E6FA0C480068A4
:100CF0001A49884207D11AA004F0DEFA01222146DF
:100D0000684602F0E3FA02F0E9FC9DF8001017A033
:100D100004F0D2FA9DF8000038BD0000D800002091
:100D2000DC0000200D0A20466C617368494420698C
:100D30007320307825782C20204D616E75666163B4
:100D40007475726572204465766963652049442034
:100D5000697320307825780D0A0000001840EF00F4
:100D60000D0A205265616420210D0A000D0A2042FF
:100D70006174746572794361706163697479466105
:100D800063746F723A2578210D0A000070B504462D
:100D9000002203211046FFF725FF054602F054FB11
:100DA00002F0E6FB134908604FF4487000F0E8FDDC
:100DB00002F0FEFB104908600E4802680846016810
:100DC0000EA004F079FA0C4800681A4988420DD147
:100DD00019A004F071FA284602F014FC01222946F9
:100DE000204602F09FFAC82000F0CAFD02F076FC0F
:100DF00070BD0000D8000020DC0000200D0A204655
:100E00006C617368494420697320307825782C2000
:100E1000204D616E756661637475726572204465FC
:100E20007669636520494420697320307825780D00
:100E30000A0000001840EF000D0A2057726974651F
:100E400020210D0A0000000010B503E003A004F00B
:100E500033FA00E0FAE700BF10BD00000D0A576149
:100E6000726E6E696E672121204275734661756CE2
:100E700074204F6363757265640D0A00F0B5054612
:100E80000E464FF6FF7418E0287801F067FE84EAFA
:100E9000002400270EE014F4004F05D048F20500AE
:100EA00080EA440084B203E04FF6FF7000EA440495
:100EB000781CC7B2082FEEDB6D1C3000A6F10101D3
:100EC0008EB2E1D1204601F059FEF0BDF8B50546DD
:100ED0000026002436A004F0EFF90020FFF7D4FE2E
:100EE0004020FFF7C3FE3A49088008460088B0F565
:100EF000FA7F01DD142008800F20364B00220521E7
:100F00000090104600F040FC00240FE03148005DE6
:100F1000302803DB2F48005D392803DD2D48005DB4
:100F20002E2802D1601CC4B200E001E00F2CEDDBE2
:100F300000BF2646072E05DD32462649E81DFFF78D
:100F400013F904E00D2224A1E81DFFF70DF9052097
:100F5000204B1033002206210090104600F014FCB4
:100F600000240DE01B481030005D302807DB1948D5
:100F70001030005D392802DC601CC4B200E001E0E2
:100F8000052CEFDB00BF2646002E07DD3246114957
:100F9000103105F11700FFF7E7F803E012A0006831
:100FA000C5F817001C20FFF761FE11490870F8BD55
:100FB0000D0A436F6E666967446174615F496E69CB
:100FC000742073746172742E2E2E0D0A00000000BE
:100FD0003E0000206505002035382E3231302E3499
:100FE000312E323032000000323031340000000047
:100FF0002F000020F0B595B00127A4A00068149040
:10100000A3A00068139000201290A2A00068119085
:1010100000201090A0A000680F909EA000680E9085
:101020009EA000680D909EA000680C9000200B9080
:101030009CA000680A909AA000680990002008907F
:1010400099A00068079096A000680690002005907F
:1010500096A00068049096A000680390002002907B
:101060000190002400260025924C2B208DF8490089
:101070009DF8500004F8010B9DF84C0004F8010B9A
:1010800000BF05E012A8405D04F8010B681C85B2A2
:10109000022DF7DB002505E08748405D04F8010BD1
:1010A000681C85B2062DF7DB9DF8440004F8010B9F
:1010B000002506E08049281D085C04F8010B681C27
:1010C00085B2022DF6DB002505E00FA8405D04F88F
:1010D000010B681C85B2022DF7DB9DF8380004F87F
:1010E000010B002505E00DA8405D04F8010B681C0C
:1010F00085B2042DF7DB002505E00CA8405D04F85F
:10110000010B681C85B2022DF7DB0820FFF7AEFD4E
:10111000000A04F8010B0820FFF7A8FD04F8010BF2
:10112000002505E00AA8405D04F8010B681C85B2A3
:10113000042DF7DB002505E009A8405D04F8010B4C
:10114000681C85B2022DF7DB0C20FFF78FFD000A2B
:1011500004F8010B0C20FFF789FD04F8010B0025B2
:1011600005E007A8405D04F8010B681C85B2042D5A
:10117000F7DB002505E006A8405D04F8010B681CBC
:1011800085B2022DF7DB1020FFF770FD000A04F88E
:10119000010B1020FFF76AFD04F8010B002505E0A4
:1011A00004A8405D04F8010B681C85B2042DF7DB30
:1011B000002505E003A8405D04F8010B681C85B21A
:1011C000022DF7DB1420FFF751FD04F8010B2F214E
:1011D0002046FFF753FE394908800846018838A0A9
:1011E00004F06AF8354800788DF805003348008827
:1011F000000A8DF80400002505E001A8405D04F810
:10120000010B681C85B2022DF7DB2A48261A3146ED
:101210002EA004F051F8354800F0B2FB34A004F0E1
:101220004BF8002506E02348415D27A004F044F870
:10123000681C85B2B542F6DB2DA004F03DF8142001
:10124000FFF714FD2B49087000202B49087011E0AE
:1012500028480078401E2749087027480078012850
:1012600003D100202449087008E0B1B2114802F00F
:101270008DFA07461F4800780028E9D100BF17B94A
:10128000012004F0A3FD15B0F0BD0000A300000094
:101290002000000001000000028200001000010494
:1012A0000002000010000105100001061000000AF5
:1012B00000010000560E00204A000020C800002057
:1012C0000D0A435243206973202578000D0A4C65AE
:1012D0006E6774685F4672616D653A2025642121EE
:1012E00021212121212121212121210040420F0002
:1012F0000D0A0000450000202A00002021B10268EC
:1013000042F00102026004E002684FF6FE731A40E8
:101310000260704701684FF6FE72114001600021C3
:10132000016041608160C1604B49884208D14A49EF
:101330000839496841F00F01474A083A51608AE08C
:1013400045491431884208D143490839496841F078
:10135000F001414A083A51607DE03F492831884216
:1013600008D13D490839496841F470613A4A083A60
:10137000516070E038493C31884208D1364908391B
:10138000496841F47041344A083A516063E0324997
:101390005031884208D130490839496841F47021F8
:1013A0002D4A083A516056E02B496431884208D1F1
:1013B00029490839496841F47001274A083A5160BF
:1013C00049E025497831884208D1234908394968DC
:1013D00041F07061204A083A51603CE01F49884260
:1013E00006D1011F096841F00F01021F116032E0B0
:1013F0001A491431884208D11849091F096841F077
:10140000F001164A121F116025E014492831884264
:1014100008D11249091F096841F470610F4A121F6F
:10142000116018E00D493C31884208D10B49091F71
:10143000096841F47041094A121F11600BE0074925
:101440005031884207D10549091F096841F47021CC
:10145000024A121F1160704708000240080402404F
:1014600010B50022026847F6F0739A430C6A8B6845
:1014700023430C6923434C6923438C692343CC6980
:1014800023434C6A23438C6A23431A430260CB688C
:1014900043600B6883604B68C36010BD10B571205A
:1014A000034908700846017802A003F005FF10BD4B
:1014B000E60000200A0D20526567423A2564200D9F
:1014C0000A00000008B50121052000F073FE042089
:1014D000ADF800008DF803006946024800F00FFBEC
:1014E00008BD00000008014008B50121052000F0FA
:1014F00061FE0420ADF8000010208DF803000320E9
:101500008DF802006946024800F0F9FA08BD0000B3
:10151000000801402DE9FF5F4FF0000B0020039011
:101520000290002401900090814682464A4800784B
:10153000012806D14948FFF729FC002046490870D8
:1015400013E0FFF7B5FB4549087045A003F0B4FE72
:1015500042480078712802DC4048007828B97120A0
:101560003E49087047A003F0A7FE04F003FC1FFAF1
:1015700080FB04F0B9FB80B2039004F04BFB80B217
:1015800002900398C0F30E0A514643A003F094FE64
:10159000324890F800A004F07FFB84B2214646A0B8
:1015A00003F08AFE8CB94FF47A7004F0BFFF4C4808
:1015B00000F0E6F92948007838B128480078401E44
:1015C0002649087004F068FB84B24FF47A7094FBEB
:1015D000F0F02249097845182846FEF7EEFF009002
:1015E00040490098FEF7EBFD06463F49FEF71DFE19
:1015F0000546FEF7FDFF00F0FF09184801783BA003
:1016000003F05AFE59463EA003F056FE44A002994C
:1016100003F052FE21464AA003F04EFE494650A078
:1016200003F04AFE4846FEF7D6FF07464FF0663203
:10163000544BFEF7E1FE0546FEF7EEFF00F0FF0912
:1016400006480078824502D00448FFF79FFB4846D1
:1016500004B0BDE8F09F00002D000020E60000204F
:101660000A0D204261747465727943617061636927
:101670007479526561645F46726F6D5F466C617329
:10168000680D0A000A0D205265674220204552521B
:101690004F5221210D0A00000A0D20B5E7B3D8B53D
:1016A000E7C1F763757272656E743A256420286D20
:1016B00041290D0A000000000A0D20D0DED5FDC72B
:1016C000B0B5E7B3D8CAA3D3E0BEF8B6D4B5E7C186
:1016D000BF524141433A2564206D41680D0A000024
:1016E000804F12000000C8420000E4420A0D205260
:1016F0006567423A256420286D56290D0A000000CE
:101700000A0D20B5E7B3D8B5E7D1B9766F6C74612F
:1017100067653A256420286D56290D0A00000000EF
:101720000A0D20B5E7C1BFC0DBBCC6616363756D40
:10173000756C6174653A2564206D41680D0A00007E
:101740000A0D20CAA3D3E0BEF8B6D4B5E7C1BF5294
:101750004141433A2564206D41680D0A00000000B4
:101760000A0D20CAA3D3E0CFE0B6D4B5E7C1BF4687
:10177000554C4C5F7374617475733A256425250D5F
:101780000A000000666604402DE9F04705460E4653
:1017900017461C46DDF820803A4631462846FFF7BA
:1017A00021FA814601F050FE01F0E2FE1049086086
:1017B0004FF4487000F0E4F801F0FAFE0D490860BB
:1017C0000B480268084601680BA003F075FD094844
:1017D00000681749884207D116A003F06DFD424604
:1017E0004946204601F072FD01F078FFBDE8F08720
:1017F000D8000020DC0000200D0A20466C617368D0
:10180000494420697320307825782C20204D616E62
:101810007566616374757265722044657669636587
:1018200020494420697320307825780D0A00000093
:101830001840EF000D0A53504920466C6173682030
:101840005732355131323842562069732072656102
:10185000647920746F2072656164210D0A000000B4
:101860002DE9F04705460E4617461C46DDF8208058
:101870003A4631462846FFF7B5F9814601F0E4FDC6
:1018800001F076FE134908604FF4487000F078F8D4
:1018900001F08EFE104908600E4802680846016893
:1018A0000EA003F009FD0C4800681A4988420DD1CA
:1018B00019A003F001FD484601F0A4FE4246494646
:1018C000204601F02FFDC82000F05AF801F006FF75
:1018D000BDE8F087D8000020DC0000200D0A20467B
:1018E0006C617368494420697320307825782C2016
:1018F000204D616E75666163747572657220446512
:101900007669636520494420697320307825780D15
:101910000A0000001840EF000D0A53504920466CA1
:10192000617368205732355131323842562069731D
:1019300020726561647920746F2077726974652103
:101940000D0A000010B502A003F0B6FC10BD0000A7
:101950000D0A5761726E6E696E67212120446562BF
:101960007567204D6F6E69746F722065786365705E
:1019700074696F6E204F6363757265640D0A0000B1
:1019800001B50C49009808604FF0E020006940F074
:1019900001004FF0E021086100BF06480068002800
:1019A000FBD14FF0E020006920F001004FF0E02172
:1019B000086108BD70000020014908607047000000
:1019C000140401402DE9F04306460F463546BC4657
:1019D000002100248846002A01DB002B02DA0020C7
:1019E000BDE8F0839A4201DA0020F9E79A4212D169
:1019F00012B90BB90020F3E7002108E0685C1CF87D
:101A00000190484501D00020EAE7481C01B291420C
:101A1000F4DB2846E4E70BB90020E1E7D01A401CCC
:101A20000FFA80F8002113E0002408E00819285C70
:101A30001CF80490484500D003E0601C04B29C42AE
:101A4000F4DB00BF9C4201D16818C9E7481C01B211
:101A50004145E9DB0020C3E72DE9F84F824689467E
:101A6000D046CB4600260025002400270020009009
:101A70005046FEF79DFB06B24846FEF799FB05B2BD
:101A8000AE4202DA0020BDE8F88FAE4213D116B99B
:101A90000DB90020F7E7002409E018F804001BF84E
:101AA0000410884201D00020EDE7601C04B2B4426B
:101AB000F3DB4046E7E70DB90020E4E7701B401C6C
:101AC00000B20090002415E0002709E0E01918F8A2
:101AD00000001BF80710884200D003E0781C07B212
:101AE000AF42F3DB00BFAF4202D108EB0400CAE70C
:101AF000601C04B200988442E6DB0020C3E72DE9B5
:101B0000F041024600250026002000230024002783
:101B100091F803C00CF00F0591F803C01CF0100FF2
:101B200003D091F802C04CEA050591F800C0BCF161
:101B3000000F31D0146800202BE04FF0010C0CFA9C
:101B400000F3B1F800C00CEA03069E4220D18300E6
:101B50004FF00F0C0CFA03F7BC4305FA03FC4CEAF8
:101B6000040491F803C0BCF1280F06D14FF0010C1A
:101B70000CFA00FCC2F814C00AE091F803C0BCF1F2
:101B8000480F05D14FF0010C0CFA00FCC2F810C050
:101B9000401C0828D1D31460B1F800C0BCF1FF0F7D
:101BA00034DD546800202EE000F1080C4FF00108ED
:101BB00008FA0CF3B1F800C00CEA03069E4221D1EA
:101BC00083004FF00F0C0CFA03F7BC4305FA03FC3B
:101BD0004CEA040491F803C0BCF1280F05D100F1D0
:101BE000080C08FA0CF8C2F8148091F803C0BCF194
:101BF000480F07D100F1080C4FF0010808FA0CF863
:101C0000C2F81080401C0828CED35460BDE8F08193
:101C10000246002093680B4201D0012000E0002022
:101C2000704741617047016170470000FEB50026B2
:101C30000025002435A00068029035A103C9CDE934
:101C4000000135A003F038FB6846FEF7B1FA07B291
:101C50003B464FF47A7269463448FFF7B3FE0546B7
:101C600075B1284602F02CF800253148FFF788FEB0
:101C700030A004F083FB3248FFF782FE0120FEBD56
:101C800030A003F019FB002406E02848015D34A0D1
:101C900003F012FB601CC4B2324800888442F4DBBB
:101CA00002234FF47A7202A92048FFF78BFE054603
:101CB000002D25D02C48854222D22CA003F0FCFA1E
:101CC000002405E0295D31A003F0F6FA601CC4B2DF
:101CD0003C2CF7DB284600F0D1FC064626B900254F
:101CE0002DA003F0E9FA0BE0012033490870002031
:101CF000324908801248FFF743FE00250120BEE765
:101D00002FA003F0D9FA0020B9E70000A3200000BB
:101D10002B434D474C3A00000D0ABDD3CAD5CAFD2E
:101D2000BEDDBDE2CEF621210D0A0000A60900208D
:101D3000C0C62D0041542B434D47443D312C330048
:101D400020A107000D0A5561727433B4AEBFDABD2D
:101D5000D3CAD5D0C5CFA2CAE4B3F63A000000007A
:101D60002025780076000020750D00200D0A5265B0
:101D700063656976652053657276657220436F6E80
:101D80006669672044617461210D0A000D0A2D2DDA
:101D900025782D2D0D0A00000D0A526563656976C0
:101DA00065202064617461206E6F7420636F7272AD
:101DB00065637421210D0A002A0000203E000020E6
:101DC0000D0ABDD3CAD5CAFDBEDDBDE2CEF6CDEA51
:101DD000B3C921210D0A0000F0B58DB004463422AC
:101DE00021496846FEF7C0F96069451E642195FBEC
:101DF000F1F12846EA1705EB9272C1EBA2014FF40C
:101E0000C87295FBF2F28F186069C11700EB9171EF
:101E10008910B0EB810112D16422616991FBF2F368
:101E200002FB131131B99200616991FBF2F302FBDD
:101E3000131121B92169022901DD012600E00026E4
:101E400040F26D1005FB00712069401E5DF8200016
:101E50000844E16808440644072096FBF0F100FBC3
:101E60001160A0610DB0F0BD0467000810B503E07B
:101E700003A003F021FA00E0FAE700BF10BD000064
:101E80000D0A5761726E6E696E672121204861727A
:101E900064204661756C74204F6363757265640DD0
:101EA0000A000000AA2101701E2141700321017166
:101EB000704710B504464FF484712046FEF76DF963
:101EC00010BD000010B503E003A003F0F5F900E039
:101ED000FAE700BF10BD00000D0A5761726E6E690F
:101EE0006E672121204D656D4D616E616765204FE4
:101EF0006363757265640D0A0000000010B502A0EE
:101F000003F0DAF910BD00000D0A5761726E6E69B8
:101F10006E672121204E4D49204F636375726564C1
:101F20000D0A000070B5002100230F22C4780CB305
:101F3000164C246804F4E064C4F5E064210AC1F19D
:101F40000403CA40447804FA03F18478144021431E
:101F500009010F4C0678A155047804F01F050124EF
:101F6000AC4005786D114FF0E02606EB8505C5F80D
:101F7000004109E0047804F01F050124AC40054D40
:101F80000678761145F8264070BD00000CED00E0A3
:101F900000E400E080E100E002490143024A1160F0
:101FA000704700000000FA050CED00E001490862EE
:101FB0007047000000000E420349096841EA8001B1
:101FC000014A116070470000007000400A48006834
:101FD00040F00400084908600846006840F002002C
:101FE00008600648006840F004000449086000BF2B
:101FF00000BF30BF704700000070004010ED00E0EF
:1020000001460020034A52680A4201D0012000E044
:1020100000207047007000400149086070470000D0
:10202000A0000E4210B502A003F046F910BD00005A
:102030000D0A5761726E6E696E6721212050656EC0
:102040006453564320657863657074696F6E204FE2
:102050006363757265640D0A0000000010B54FF4EB
:10206000C0725F217F2003F0CFF802F0A7FC02F0DE
:1020700053FD02F001FE02F099FE02F05DFC02F059
:10208000F1F802F029F900F029FA1C4800F094F95F
:102090001A4802F0D9FB02F077F84FF48051184843
:1020A000FFF7C1FD4FF480711648FFF7BCFD1648DD
:1020B000FFF766FC80211348FFF7B3FD1248FFF7D6
:1020C0005FFC1248FEF702FF11480078012813D187
:1020D00010A003F0F1F801F025FD4FF47A7004F040
:1020E00025FAFFF7DBF9FFF715FA1248008801F02F
:1020F00073FC1148FFF744FC10BD00000C050020E4
:102100000008014000100140A086010028050020C1
:102110002D0000200D0AB5F4B5E7D6D8C6F4A3AC5F
:10212000D6D8D0C2B3F5CABCBBAFBFE2C2D8BCC61A
:102130000D0A00005000002060E316000146002058
:10214000034A506820F44040084350607047000044
:102150000010024029B1064A52690243044B5A61F9
:1021600004E0034A52698243014B5A617047000000
:102170000010024029B1064AD2690243044BDA61D9
:1021800004E0034AD2698243014BDA6170470000E0
:102190000010024029B1064A12690243044B1A6139
:1021A00004E0034A12698243014B1A617047000040
:1021B0000010024029B1064A92690243044B9A6119
:1021C00004E0034A92698243014B9A617047000020
:1021D0000010024029B1064AD2680243044BDA607B
:1021E00004E0034AD2688243014BDA607047000082
:1021F000001002400149086070470000400442425C
:102200000348406A40F0807001494862704700000E
:102210000010024030B500210022002400232D4D83
:102220006D6805F00C0121B1042905D0082923D1DE
:1022300005E0294D056022E0274D05601FE0254D92
:102240006D6805F47012234D6D6805F48034022525
:1022500005EB92421CB9214D554305600BE01D4D25
:102260006D6815F4003F03D01C4D5543056002E036
:10227000194D5543056002E0174D056000BF00BFD2
:10228000144D6D6805F0F0010909154D6B5C05688A
:10229000DD4045600F4D6D6805F4E061090A104DA1
:1022A0006B5C4568DD4085600A4D6D6805F46051E2
:1022B000C90A0B4D6B5C4568DD40C560054D6D6816
:1022C00005F44041890B074D6B5CC568B5FBF3F520
:1022D000056130BD0010024000127A0000093D0087
:1022E000140000202400002010B501460022002325
:1022F00000204A11012A02D1094C236806E0022A73
:1023000002D1074C236A01E0054C636A01F01F0209
:10231000012494401C4201D0012000E0002010BDA7
:102320000010024000210A4A11700A4A82F8201067
:10233000012802D0042808D103E00121044A1170C9
:1023400004E00521024A117000E000BF00BF7047A1
:102350002010024000100240014908607047000050
:102360003C0442420249096A0143014A1162704732
:102370000010024010B500F0FBF8022000F08CF8CD
:1023800090B10AA002F098FF4FF40030FFF714FB61
:102390000120FFF735FE10B10120FFF70DFE0220EE
:1023A00000F02EF800F0DAF810BD000057616B6500
:1023B000757021210000000010B504460420FEF7CE
:1023C00055FCA0F52541A53907D000F021F84AF2C7
:1023D000A5510420FEF75EFC0CE07B20FFF784FF94
:1023E00018B101200549087002E07A20FFF77CFF50
:1023F00000F0BEF8FFF704FF10BD00002D00002024
:10240000024909888143014A11807047042800402D
:1024100010B501214FF0C050FFF7ACFE0120FFF7CF
:10242000C5FDFEF71BFC0120FFF77CFF00BF41202C
:10243000FFF75AFF0028FAD04FF48070FFF792FFA1
:102440000120FFF789FF00F093F800F087F847F6C6
:10245000FF7000F073F800F081F810BD03480088A9
:1024600040F0100001490880704700000428004037
:10247000034800884FF6EF71084001490880704713
:1024800004280040002103480188001F008841EA19
:10249000004070471C28004001460020064A128870
:1024A0000A40D0B2044A121F12880A4202D008B170
:1024B000012000E0002070470428004010B50120F2
:1024C000FFF7EAFF38B10120FFF79AFF0120024928
:1024D000086000F043F810BD8C00002008B54FF4F0
:1024E000A060FFF759FD03208DF8000002208DF851
:1024F00001008DF8020001208DF803006846FFF707
:1025000011FD08BD00B50246FFF7A8FF100C0349F6
:102510000880091D0A80FFF7ABFF00BD202800409E
:1025200000B50246FFF79AFF100C03490880091D09
:102530000A80FFF79DFF00BD1828004000B5024645
:10254000FFF78CFFC2F3034003490880091D0A808E
:10255000FFF78EFF00BD00000828004000BF0348C1
:10256000008810F0200FFAD07047000004280040C7
:10257000064800884FF6F77108400449088000BFFC
:102580000248008810F0080FFAD070470428004075
:1025900010B50020214908702149086039E0214820
:1025A000FFF7EEF91E4801681FA002F085FE00F05B
:1025B0009BFA2549087008460078012824D123A0F9
:1025C00002F07AFE0020284908600BE02748264ADE
:1025D0001268815C26A002F06FFE23480068401C50
:1025E0002149086020480068224909888842EDDBBB
:1025F000FFF71CFB4FF496711C48FDF7CEFD002041
:102600001C4908801C49086005480068401C0449B2
:102610000860034800680A28C1DB10BD6400002080
:102620006800002020A107000D0A2054686520637F
:10263000757272656E7420692076616C7565203DD7
:102640002564200D0A000000650000200D0A556178
:10265000727434B4AEBFDABDD3CAD5D0C5CFA2CA66
:10266000E4B3F63A000000006C000020A609002048
:102670002025780076000020580000202DE9F04742
:1026800094B0044604AD0026B246B146B046207868
:10269000287060786870A078A870E178E9700426E6
:1026A00005E0A25D301F291D0A54701C86B20A2E57
:1026B000F7DBA07AA872E07AE872217B2973607B4D
:1026C0006873A17BA973617BC8A002F0F5FD607BF4
:1026D000032876D1E07BE873102607E0A25DA6F11F
:1026E000100005F110010A54701C86B2142EF5DB9F
:1026F000207D2875617D6975162607E0A25DA6F12B
:10270000160005F116010A54701C86B21C2EF5DB6A
:102710001C2607E0A25DA6F11C0005F11C010A546D
:10272000701C86B2202EF5DB14F8200F85F82000EF
:10273000617821204155A07885F82200E178A4F144
:1027400020044FF0230041554FF0240607E0A25D1E
:10275000A6F1240005F124010A54701C86B2282E2B
:10276000F5DB14F8280F85F82800617829204155F9
:10277000A07885F82A00E178A4F128044FF02B0016
:1027800041554FF02C0607E0A25DA6F12C0005F1A3
:102790002C010A54701C86B2302EF5DB14F8300F71
:1027A00085F83000617831204155A07885F83200F5
:1027B000E178A4F130044FF0330041554FF0340676
:1027C00008E072E0A25DA6F1340005F134010A547C
:1027D000701C86B2382EF5DB14F8380F85F83800F7
:1027E000617839204155A07885F83A00E1783B209E
:1027F0004155207985F83C006179A4F138044FF007
:102800003D004155284601F0A9FF2320405D95F881
:10281000221000EB01201FFA80FA51460820FEF733
:1028200039FA2B20405D95F82A1000EB01201FFAA1
:1028300080FA51460C20FEF72DFA3320405D95F8C2
:10284000321000EB01201FFA80FA51461020FEF7EB
:1028500021FA3B20405D95F83A1000EB01201FFA69
:1028600080FA51461420FEF715FA012065490870D8
:10287000084601781C20FEF70DFA634884420FD207
:10288000002605E0A15D61A002F016FD701C86B275
:102890003E2EF7DBFEF7AEFB012014B0BDE8F0875B
:1028A00063A002F009FD0020F7E7607B012802D158
:1028B000FEF7A0FB98E0607B052803D166A002F03C
:1028C000FBFC91E0607B092803D16DA002F0F4FCD1
:1028D0008AE0607B0A2804D10221734800F050FA94
:1028E00082E0607B12287BD170A002F0E5FC4FF003
:1028F000000808E008F10F00205C0DF8080008F15E
:10290000010000F0FF08B8F10D0FF3DBAF208DF8E8
:1029100000004FF0000808E01DF8080048441FFAC6
:1029200080F908F1010000F0FF08B8F10A0FF3DBAD
:1029300048464FEAE97109EB11610912A9EB01213F
:10294000C9B28DF80A104FF496715C48FDF725FC6A
:1029500000205B4908805B4908600D21684603F050
:1029600039FD00F0C1F801283ED157A002F0A4FCC7
:10297000002706E05148C15D58A002F09DFC781C7C
:1029800087B24F4800888742F4DB002705E05448AF
:10299000C05D5449C855781C87B2062FF7DBBF20AD
:1029A00050498871072706E0B81F4449085C4D4923
:1029B000C855781C87B242480088C01D8742F3DBA7
:1029C0003221484800F0E2FE4FF496713B48FDF793
:1029D000E4FB00203A4908803A49086004E0FFE738
:1029E000617B02A002F068FC00BF56E70D0A70523E
:1029F00065636576427566665B31335D2069732079
:102A00003A2578002F000020750D00200D0A446142
:102A1000746120726563656976652066726F6D20EA
:102A2000536572766572206973203A25780000003C
:102A30000D0A5761726E6E696E67214D656D6F721A
:102A400079204F766572466C6F77204F636375729D
:102A500021210D0A000000000D0A20534C4E6F6921
:102A600073655F446174612055706C6F616420739D
:102A700075636365737366756C6C7921210D0A004B
:102A80000D0A204465766963652053746172742071
:102A90004C6F67696E207375636365737366756CDD
:102AA0006C7921210D0A0000280500200D0A2073F1
:102AB00065742034333321210D0A0000A60900205B
:102AC00076000020580000200D0A343333C4A3BF21
:102AD000E9D0C5CFA2CAE4B3F63A000020257800B9
:102AE0004A000020F60E002070B500250024114891
:102AF0000088E8B12021104802F0B7F90021012038
:102B0000FFF738FB0DA002F0D7FB00BF06E00E4830
:102B1000015D0EA002F0D0FB601CC4B2322CF6DBCB
:102B20000948051929460BA002F0C6FB012070BD1B
:102B30000020FCE776000020004C00400D0A5541C3
:102B40005254343A00000000A609002020257820C5
:102B50000000000025730D0A00000000014601F08E
:102B60000100002207E04306180E491001F001039E
:102B70001843531CDAB2072AF5DB7047014601F00F
:102B80000100002209E04FF6FF7303EA40004910FC
:102B900001F001031843531CDAB20F2AF3DB70472C
:102BA000FEB505460C4600200090019002900022E0
:102BB00001211046FEF716F8064600F0D9FC5249EE
:102BC00008604FF44870FEF7DBFE00F0F1FC4F495F
:102BD00008604D480268084601684DA002F06CFB91
:102BE0004A4800685849884204D101223146684663
:102BF00000F06CFB9DF8001054A002F05DFB9DF806
:102C000000000F2803DB9DF80000FF2878D19DF815
:102C10000000FF2803D101208DF800000CE09DF892
:102C20000000421C3146684600F050FB9DF8000051
:102C3000401CC0B28DF800009DF800000DF8004067
:102C400000F096FC304908604FF44870FEF798FE9B
:102C500000F0AEFC2D4908602B4802680846016868
:102C60002BA002F029FB29480068374988420FD180
:102C70003AA002F021FB304600F0C4FC9DF80000B1
:102C8000421C3146684600F04DFBC820FEF778FE36
:102C900000F024FD9DF8001000220120FDF7A2FFA6
:102CA000064600F065FC184908604FF44870FEF7CE
:102CB00067FE00F07DFC154908601348026808466D
:102CC000016813A002F0F8FA104800681E49884213
:102CD0000DD122A002F0F0FA304600F093FC22461B
:102CE0003146284600F01EFBC820FEF749FE00F0E2
:102CF000F5FC9DF8001015A002F0DEFA03E0FFE7F6
:102D00001AA002F0D9FAFEBDD8000020DC00002095
:102D10000D0A20466C61736849442069732030783D
:102D200025782C20204D616E75666163747572651F
:102D300072204465766963652049442069732030B8
:102D40007825780D0A0000001840EF004461746196
:102D50005F4E756D3A202564000000000D0A205773
:102D60007269746520210D0A0000000073746F728F
:102D70006167652069732066756C6C2121212100D3
:102D80002DE9F04F9DB08A46F6A000681590F6A098
:102D90000068149000201390F4A0006812900020A6
:102DA0001190F3A000681090F0A000680F90F1A0BF
:102DB00000680E90F0A000680D90ECA000680C90E8
:102DC000EEA000680B90EEA000680A90EDA00068ED
:102DD0000990EDA000680890ECA000680790E6A0BC
:102DE00000680690EAA00068059000200490002486
:102DF00083460025BAF1020F02D10B208DF8400066
:102E0000FDF7B6FD16AEE34CE3480078252101EB53
:102E10004000C0B28DF84D009DF8540004F8010B3D
:102E20009DF8500004F8010B002505E013A8405D53
:102E300004F8010B681C85B2022DF7DB002505E0C4
:102E4000D648405D04F8010B681C85B2062DF7DBFF
:102E50009DF8480004F8010B002506E0CF49281D25
:102E6000085C04F8010B681C85B2022DF6DB002516
:102E700005E010A8405D04F8010B681C85B2022D26
:102E8000F7DB9DF83C0004F8010BBAF1020F17D1F3
:102E9000002505E00EA8405D04F8010B681C85B212
:102EA000042DF7DB002505E00DA8405D04F8010BBB
:102EB000681C85B2022DF7DB9DF8300004F8010B89
:102EC000002505E007A8405D04F8010B681C85B2E9
:102ED000042DF7DB002505E006A8405D04F8010B92
:102EE000681C85B2022DF7DBFEF714FB05909DF8F8
:102EF0001410ABA002F0E0F99DF8140004F8010BE7
:102F0000002505E00BA8405D04F8010B681C85B2A4
:102F1000042DF7DB002505E00AA8405D04F8010B4D
:102F2000681C85B2022DF7DB304601F08DFC307D48
:102F3000A0F5FA6004F8010B307C04F8010B307B3B
:102F400004F8010B307A04F8010B307904F8010B16
:102F5000307804F8010BD6E90101C1EB011100EB57
:102F600081009B4909888C4A127801FB120099491B
:102F70000880084600889649098800EBC120A0F126
:102F800070594FEA19608DF824004FEA19408DF806
:102F900025004FEA19208DF8260009F0FF008DF872
:102FA0002700002505E009A8405D04F8010B681C16
:102FB00085B2042DF7DB784800784006000E8DF8C6
:102FC0002100002505E008A8405D04F8010B681CFD
:102FD00085B2022DF7DB9DF821107FA002F06CF97D
:102FE000002559E0814801F02FFC1420FDF73EFE3A
:102FF00007461020FDF73AFE80460C20FDF736FE0E
:1030000003900820FDF732FE4346009702900146E8
:103010007748039A02F050F9FFF7BAFA754800882A
:10302000FDF7D4FA4FF08B410090FDF7FEF80190C8
:10303000FDF70BFB4FF066326F4BCDE90201FDF758
:10304000DBF90746FDF728FB6C49086029466CA0B0
:1030500002F032F967480088642190FBF1F73946A5
:103060006CA002F029F965480068FDF7EEFA074602
:103070003A460B4670A002F01FF95E4800886421B2
:1030800090FBF1F004F8010B002004F8010B7348E9
:10309000FEF776FC681C85B2052DA3DB3E48007860
:1030A000292202EB40012046FDF7E8FE6C4908802A
:1030B000084601886BA002F0FFF8694800788DF897
:1030C000110067480088000A8DF81000002505E00F
:1030D00004A8405D04F8010B681C85B2022DF7DBE3
:1030E0002C48A4EB000B594661A002F0E5F86848B3
:1030F000FEF746FC46A002F0DFF8002506E0254872
:10310000415D39A002F0D8F8681C85B25D45F6DB58
:103110003FA002F0D1F803205E49087000205E490C
:1031200008705C4801785DA002F0C6F811E05948CB
:103130000078401E5749087057480078012803D18D
:1031400000205549087008E01FFA8BF1114800F083
:103150001DFB504800780028E9D100BF1DB0BDE834
:10316000F08F0000A300000020000000010000001C
:103170000482000060000200000100001000005006
:1031800000060000C400183C003000006000002071
:10319000FF000000560E0020440000204A000020DE
:1031A0000D0A205468652063757272656E74204242
:1031B00061747465727956616C75655B305D2076FB
:1031C000616C7565203D202564200D0A000000001B
:1031D00042000020CA0000200D0A4E6F6973654C42
:1031E000656E5B315D206973202578000C05002039
:1031F00038670008E800002066660A40CC0000201E
:103200004E6F6973655F436F756E743A2025642055
:103210000D0A00000D0A20546865206375727265FE
:103220006E742041442076616C7565203D203078B5
:1032300025303458200D0A000D0A2054686520639B
:10324000757272656E742041442076616C756520DC
:103250003D2025662056200D0A000000404B4C0002
:10326000C80000200D0A43524320697320257800CE
:103270000D0A4C656E6774685F4672616D653A2031
:103280002564212121212121212121212121210008
:1032900040420F00450000202A0000200D0A557012
:1032A0006C6F6164436F756E742069732025640DC3
:1032B0000A00000021B1028842F04002028004E0CE
:1032C00002884FF6BF731A400280704770B50546FA
:1032D0000C4616464FF480511148FEF7A2FC03201D
:1032E00000F0B4F9C4F3074000F0B0F9C4F30720CC
:1032F00000F0ACF9E0B200F0A9F905E0FF2000F021
:10330000A5F9287006B16D1C3000A6F101018EB23E
:10331000F4D14FF480510248FEF785FC70BD0000E7
:10332000000C01402DE9F05F07460E4614464FF0B1
:103330000008C146C2460025AB4606F0FF0ACAF1A6
:103340000000C5B22046E11704EB1161C1F3072864
:10335000E11704EB11610912A4EB012101F0FF094F
:10336000BAF1000F20D1B8F1000F05D12246314645
:10337000384600F0CBF864E009E04FF48072314643
:10338000384600F0C3F806F5807607F580775FEAE7
:103390000800A8F1010101F0FF08EED14A463146CC
:1033A000384600F0B3F84CE0B8F1000F18D1A94549
:1033B00010DDA9EB050000F0FF0B2A463146384628
:1033C00000F0A4F82E442F445A463146384600F007
:1033D0009DF836E022463146384600F097F830E056
:1033E000601B84B22046E11704EB1161C1F307288A
:1033F000E11704EB11610912A4EB012101F0FF09AF
:103400002A463146384600F081F82E442F4409E020
:103410004FF480723146384600F078F806F5807631
:1034200007F580775FEA0800A8F1010101F0FF08C5
:10343000EED1B9F1000F04D04A463146384600F0CB
:1034400065F8BDE8F09F000000B587B001210820B5
:10345000FEF7B0FE01218803FEF78CFE4FF400500A
:10346000ADF8040003208DF8060018208DF8070041
:1034700001A92448FEF743FB4FF48040ADF8040057
:1034800001A92048FEF73BFB4FF40040ADF80400D3
:1034900001A91C48FEF733FB4FF48050ADF804003F
:1034A00010208DF8070001A91648FEF728FB4FF4FD
:1034B00080511448FEF7B7FB0020ADF808004FF428
:1034C0008270ADF80A000020ADF80C000220ADF8C3
:1034D0000E000120ADF810004002ADF812000820E7
:1034E000ADF814000020ADF816000720ADF8180064
:1034F00002A9054800F012F901210348FFF7DAFE9E
:1035000007B000BD000C01400038004070B5054612
:103510000C46164600F0D0F84FF480511348FEF7E1
:1035200080FB022000F092F8C4F3074000F08EF810
:10353000C4F3072000F08AF8E0B200F087F8B6F58F
:10354000807F01DD4FF4807603E0287800F07EF87C
:103550006D1C3000A6F101018EB2F6D14FF48051FE
:103560000248FEF760FB00F08DF870BD000C0140D2
:1035700010B500244FF480510C48FEF752FBAB20ED
:1035800000F064F8FF2000F061F8FF2000F05EF822
:10359000FF2000F05BF8FF2000F058F804464FF4DD
:1035A00080510248FEF73FFB204610BD000C014051
:1035B0002DE9F04100240025002600274FF480511A
:1035C0000F48FEF72EFB9F2000F040F8FF2000F090
:1035D0003DF80546FF2000F039F80646FF2000F0D0
:1035E00035F807464FF480510548FEF71CFB2804C8
:1035F00040EA062040EA07042046BDE8F0810000CA
:10360000000C014010B5044600F056F800F03AF8FE
:103610004FF480510C48FEF704FB202000F016F810
:10362000C4F3074000F012F8C4F3072000F00EF8CE
:10363000E0B200F00BF84FF480510348FEF7F3FAC4
:1036400000F020F810BD0000000C014010B5044649
:1036500000BF02210A4800F053F80028F9D02146A3
:10366000074800F059F800BF0121054800F048F86C
:103670000028F9D0024800F04CF8C0B210BD00009C
:103680000038004010B500244FF480510948FEF77F
:10369000C8FA0520FFF7DAFF00BFFF20FFF7D6FFCB
:1036A000044614F0010FF8D14FF480510148FEF7A1
:1036B000BAFA10BD000C014010B54FF48051064815
:1036C000FEF7AFFA0620FFF7C1FF4FF48051024822
:1036D000FEF7A9FA10BD0000000C014010B54FF430
:1036E00080510648FEF79DFAB920FFF7AFFF4FF46F
:1036F00080510248FEF797FA10BD0000000C01400F
:103700000246002013890B4201D0012000E0002076
:1037100070470146888970478181704710B5002243
:10372000028802F441520B884C8823438C8823433F
:10373000CC8823430C8923434C8923438C8923431E
:10374000CC8923431A430280838B4FF2FF742340BA
:1037500083830B8A038210BD10B502A001F0ACFD7B
:1037600010BD00000D0A5761726E6E696E672121EF
:1037700020535643616C6C20657863657074696F83
:103780006E204F6363757265640D0A002DE9F04F7A
:10379000C5B082460D4603AC52A0006802900026D8
:1037A000002700BFB34650484179007901EB002063
:1037B0001FFA80F82046FEF77CFB2046FEF772FBDE
:1037C0004AA001F079FD41464EA001F075FD4FF48D
:1037D00096715348FCF7E1FC002052490880524999
:1037E00008605248FEF7CCF884F803804FEA28209E
:1037F000A0702A46514604F10900FCF7B5FCA571FA
:10380000204601F036FCA07900F109052946204642
:1038100002F0E0FD4648FEF7B3F8334991F8059011
:103820004FEAE97109EB11710911A9EB01114FF48C
:103830007A72514301FB02F0FEF7A2F82A4841795F
:103840003CA001F039FD284890F805904FEAE97056
:1038500009EB10700011A9EB00113DA001F02CFD47
:10386000FFF742F901900198012836D140A001F0FC
:1038700023FD00BF06E02A48C15D44A001F01CFD05
:10388000781CC7B2274800888742F4DB02A9244885
:10389000FEF7E2F88346BBF1000F12D03CA001F026
:1038A0000BFD41A001F008FD002606E01BF8061004
:1038B00036A001F001FD701CC6B21A48008886428D
:1038C000F4DBFEF7B3F94FF496711548FCF765FC8D
:1038D00000201449088014490860012045B0BDE863
:1038E000F08F0000AA9D00004A0000200D0A415000
:1038F0002049442067657420737563636573732181
:10390000210000000D0A4D61696E205374617469D5
:103910006F6E2069733A202534780D0A000000008C
:10392000A6090020760000205800002040420F0029
:1039300000127A0044657669636549645B355D2EE3
:103940002E2E2E21212121202564200D0A00000089
:1039500044657669636549645B355D2531362E2E95
:103960002E2E21212121202564200D0A0000000097
:103970000D0A5561727434B4AEBFDABDD3CAD5D066
:10398000C5CFA2CAE4B3F63A0000000020257800B3
:103990000D0A446174612073656E642073756363FE
:1039A00065737321210000000D0A526573706F6EFC
:1039B00073652066726F6D203433332069733A006B
:1039C00070B50446002500262046FCF7F1FBC5B281
:1039D00066191A20307070BD7FB5054613A30FCB52
:1039E0008DE80F000024002628128DF80800E8B2A8
:1039F0008DF8090000BF05E01DF80600204484B2E0
:103A0000701CC6B20A2EF7DB2046E11704EB1161E9
:103A10000912A4EB0121C9B28DF80A100D216846E4
:103A200002F0D8FC0548FDF7ABFF7FBDAFAF00004B
:103A3000AF801302FFFFFF0D0A00000080841E000C
:103A400010B500F001F810BD0CB5002001900090F9
:103A50003248006840F480303049086000BF2F4889
:103A6000006800F4003000900198401C019000981C
:103A700018B90198B0F5A06FF1D12848006810F48A
:103A8000003F02D00120009001E00020009000984B
:103A9000012842D12248006840F010002049086007
:103AA0000846006820F0030008600846006840F0FF
:103AB0000200086019484068184948600846406894
:103AC00048600846406840F48060486008464068A6
:103AD00020F47C1048600846406840F4E8104860D4
:103AE0000846006840F08070086000BF0B4800681E
:103AF00010F0007FFAD00948406820F00300074921
:103B000048600846406840F00200486000BF034833
:103B1000406800F00C000828F9D10CBD00100240EC
:103B20000020024010B50021602002F0C5FD602099
:103B300002F052F80221612002F0BEFD612002F085
:103B40004BF832210F2002F0B7FD0F2002F044F8AD
:103B50001C21142002F0B0FD142002F03DF8ED21EC
:103B6000622002F0A9FD622002F036F88021632075
:103B700002F0A2FD632002F02FF89B21642002F0E6
:103B80009BFD642002F028F81421652002F094FDCA
:103B9000652002F021F88321662002F08DFD662069
:103BA00002F01AF80821672002F086FD672002F073
:103BB00013F83221692002F07FFD692002F00CF831
:103BC0001F216A2002F078FD6A2002F005F84021EA
:103BD0006B2002F071FD6B2001F0FEFF06216820D2
:103BE00002F06AFD682001F0F7FF0F216C2002F05F
:103BF00063FD6C2001F0F0FF1C216D2002F05CFDE4
:103C00006D2001F0E9FF26216E2002F055FD6E20A7
:103C100001F0E2FF27216F2002F04EFD6F2001F03E
:103C2000DBFF0721702002F047FD702001F0D4FF78
:103C30001021712002F040FD712001F0CDFF1E2106
:103C4000722002F039FD722001F0C6FF12217320AC
:103C500002F032FD732001F0BFFF0221742002F058
:103C60002BFD742001F0B8FF0521752002F024FD22
:103C7000752001F0B1FF0521762002F01DFD7620B0
:103C800001F0AAFF0A21772002F016FD772001F04B
:103C9000A3FF0421782002F00FFD782001F09CFFA3
:103CA0000821792002F008FD792001F095FF00211C
:103CB0007A2002F001FD7A2001F08EFF10BD000095
:103CC0002DE9F04393B0804681A103C9CDE91101EC
:103CD000182281A10BA8FCF747FA182284A105A895
:103CE000FCF742FA00200190029003900490002417
:103CF00000260027002584A14046FDF7ADFE0446BE
:103D0000002C7DD08448844213D20F34214683A0F6
:103D100001F0D2FA00BF09E02078222800D107E0A4
:103D2000207801A94855641C681CC5B2102DF3DB2E
:103D300000BF0D2D08DB2A4601A97B48FCF714FAC9
:103D400001A97AA001F0B8FA002411A8FCF730FA12
:103D50000FFA80F94B464FF47A7211A97948FDF7B2
:103D600031FE0446002CCCD011A8FCF721FA014604
:103D700069481D30401AA04242D911A8FCF718FA30
:103D800006190024314670A001F096FA52A130467F
:103D9000FDF762FE0446002C47D00BA8FCF708FA9A
:103DA00001465D481D30401A1038A0423DD90BA88D
:103DB000FCF7FEF90619002505E0705D0D2800D11D
:103DC00003E0681CC5B2102DF7DB00BF0F2D01DC2E
:103DD000072D03DA65A001F06FFA0DE010216B48A2
:103DE000FCF7DBF92A4631466848FCF7BDF90321A8
:103DF000664801F053F90746012F0BD164A000E09B
:103E000062E001F059FA6A48FDF7BAFD69A000F0D6
:103E100079F908E06FA001F04FFA6548FDF7B0FDB1
:103E20007BA000F06FF90027002431A13046FDF798
:103E300013FE0446002C47D005A8FCF7B9F901464B
:103E400035481D30401A801FA0423DD905A8FCF717
:103E5000AFF90619002505E0705D0D2800D103E0DB
:103E6000681CC5B2062DF7DB00BF022D01DB052D56
:103E700003DD3EA001F020FA0EE04448103000219E
:103E8000016081802A463146FCF76EF904213F48E3
:103E9000103001F003F90746012F0AD131466AA01C
:103EA00001F00AFA4248FDF76BFD70A000F02AF914
:103EB00008E076A001F000FA3D48FDF761FD82A020
:103EC00000F020F90027002413B0BDE8F0830000C3
:103ED0002B3332220000000063617369635F7365F6
:103EE000745F7365727665725F69705F00000000D1
:103EF00063617369635F7365745F7365727665721E
:103F00005F706F72745F00002252454320554E521D
:103F10004541442200000000880900200D0A31318B
:103F2000313A25730D0A0000450500200D0A43753E
:103F30007272656E7450686F6E654E756D3A25735A
:103F40000D0A0000BE0500200D0A52656365697602
:103F5000652053686F7274204D65737361676520C7
:103F600069733A2025730D0A000000000D0A4D65A3
:103F700073736167652073657420696E7075742052
:103F80004552524F5221210D0A0000002F050020FA
:103F90000D0A5365727665722049502075706C6FFA
:103FA0006164207375636365737321210D0A0000DA
:103FB00080841E000D53657276657220495020750D
:103FC000706C6F6164207375636365737321210D79
:103FD000000000000D0A496E7075742073657276DA
:103FE0006572204950206E6F7420636F7272656332
:103FF00074210D0A506C6561736520636865636B9D
:1040000020616E642072657472792E0D0A000000C2
:104010000D496E7075742073657276657220495013
:10402000206E6F7420636F7272656374210D506C23
:104030006561736520636865636B20616E642072DF
:10404000657472792E0D00000D0A536572766572E3
:1040500020706F72742075706C6F6164207375636B
:104060006365737321213A25730D0A000D53657240
:1040700076657220706F72742075706C6F61642049
:104080007375636365737321210D00000D0A496E1A
:104090007075742073657276657220706F7274200B
:1040A0006E6F7420636F7272656374210D0A506CB9
:1040B0006561736520636865636B20616E6420725F
:1040C000657472792E0D0A000D496E707574207337
:1040D000657276657220706F7274206E6F742063E3
:1040E0006F7272656374210D506C65617365206336
:1040F0006865636B20616E642072657472792E0D41
:104100000000000030B5B3B00446C82101A8FCF798
:1041100044F8C82101A8FCF740F8124B12A2C821AC
:1041200001A801F0D9F801A802F028F91248FDF71A
:1041300027FCC82101A8FCF730F82046FCF738F826
:1041400005462B462246C72101A801F0C5F801A863
:10415000FFF736FC01A802F011F90848FDF710FC42
:1041600033B030BD4505002041542B434D47533DEE
:10417000222573220000000020A1070040420F000A
:1041800010B500F06BFB10BD30B51A4800681A4A34
:10419000B0FBF2F1B1F1807F01D301201DE021F0ED
:1041A0007F40401E4FF0E022506150170F22002840
:1041B00007DA13071D0E114B00F00F04241F1D55C5
:1041C00003E013071C0E0E4B1C5400BF00204FF0E1
:1041D000E022906107201061002008B100BFFEE7D7
:1041E0004FF0E020006920F001004FF0E02108616D
:1041F00030BD00000000002040420F0018ED00E03C
:1042000000E400E010B51348006840F001001149D7
:10421000086008464068104908400E494860084652
:1042200000680E4908400B4908600846006820F401
:10423000802008600846406820F4FE0048604FF483
:104240001F008860FFF7FCFB4FF000600449086026
:1042500010BD0000001002400000FFF8FFFFF6FE56
:1042600008ED00E00EB501210846FDF783FF40F29E
:10427000E730ADF804004720ADF800000020ADF8AD
:104280000600ADF8020069464FF0804000F0B2F938
:104290000121880700F08EF801221146900700F0F6
:1042A000A0F90121880700F08BF800210120FDF71B
:1042B00061FF0EBD10B50121880700F081F940B102
:1042C0000121880700F079F802480068401C014984
:1042D000086010BD5800002008B54FF4A060FDF73D
:1042E0005BFE1C208DF8000001208DF801000220EB
:1042F0008DF8020001208DF803006846FDF712FEDC
:1043000008BD00000EB501210220FDF733FF114862
:1043100000F062F841F28730ADF804004720ADF8B4
:1043200000004FF40070ADF806000020ADF8020068
:104330006946084800F05EF90121064800F03AF8A5
:1043400001221146034800F04CF90121014800F018
:1043500037F80EBD0004004010B50121104800F0F0
:104360002FF9D8B101210E4800F027F800220121D1
:104370000B4800F036F90021094800F021F8084800
:1043800000F02AF80120074908700748007807491B
:1043900008700020044908700549088010BD00001D
:1043A000000400407F0000207D00002081000020EC
:1043B00076000020CA4302827047CA4302827047D7
:1043C00021B1028842F00102028004E002884FF627
:1043D000FE731A400280704710B504466848844254
:1043E00008D10121C014FDF7F5FE0021E014FDF70E
:1043F000F1FEC4E0B4F1804F08D101210846FDF779
:10440000C9FE00210120FDF7C5FEB8E05D488442E9
:1044100008D101210220FDF7BDFE00210220FDF799
:10442000B9FEACE05848844208D101210420FDF7D0
:10443000B1FE00210420FDF7ADFEA0E05348844208
:1044400008D101210820FDF7A5FE00210820FDF775
:10445000A1FE94E04E48844208D101211020FDF7CE
:1044600099FE00211020FDF795FE88E0494884421E
:1044700008D101212020FDF78DFE00212020FDF72D
:1044800089FE7CE04448844208D101214014FDF7B4
:10449000A1FE00216014FDF79DFE70E03F488442BC
:1044A00009D10121C804FDF795FE00214FF4002039
:1044B000FDF790FE63E03A48844209D101210805E6
:1044C000FDF788FE00214FF48010FDF783FE56E0D3
:1044D0003448844209D101214805FDF77BFE0021C3
:1044E0004FF40010FDF776FE49E02F48844208D1D2
:1044F00001214020FDF74EFE00214020FDF74AFE3D
:104500003DE02A48844208D101218020FDF742FE87
:1045100000218020FDF73EFE31E02548844208D18D
:1045200001218015FDF736FE0021A015FDF732FEB2
:1045300025E02048844209D101210804FDF74AFE04
:1045400000214FF48030FDF745FE18E01A48844200
:1045500009D101214804FDF73DFE00214FF4003050
:10456000FDF738FE0BE01548844208D1012188048C
:10457000FDF730FE00214FF48020FDF72BFE10BD2B
:10458000002C01400004004000080040000C0040E6
:10459000001000400014004000340140004C014075
:1045A000005001400054014000180040001C004031
:1045B000002000400040014000440140004801400C
:1045C00030B50246002000230024158A05EA0103C5
:1045D000958905EA010413B10CB1012000E0002027
:1045E00030BD1AB183890B43838102E083898B43F9
:1045F00083817047002202881D4B98420ED01D4BCC
:1046000098420BD0B0F1804F08D01B4B984205D098
:104610001A4B984202D01A4B984204D14FF68F732E
:104620001A404B881A43174B984207D0164B9842B2
:1046300004D04FF6FF431A40CB881A4302808B8880
:1046400083850B8803850A4B98420BD0094B98420F
:1046500008D00E4B984205D00D4B984202D00D4B1E
:10466000984201D10B7A03860123838270470000B0
:10467000002C0140003401400004004000080040CC
:10468000000C0040001000400014004000400140B9
:10469000004401400048014010B5002202211046AC
:1046A000FCF7A0FA0446FEF7CFFEFEF761FF1449BF
:1046B00008604FF44870FDF763F9FEF779FF114980
:1046C00008600F480268084601680FA000F0F4FD7A
:1046D0000C4800681A4988420ED11AA000F0ECFD7F
:1046E0002046FEF78FFF1B48028821461A48FEF736
:1046F00019FEC820FDF744F9FEF7F0FF10BD0000D9
:10470000D8000020DC0000200D0A20466C61736890
:10471000494420697320307825782C20204D616E23
:104720007566616374757265722044657669636548
:1047300020494420697320307825780D0A00000054
:104740001840EF000D0A20577269746520210D0A88
:10475000000000003E0000203C02002030B587B081
:104760000446FDF755FE14A000F0A6FDFDF7F6FE89
:10477000A07D00F5FA600590E07D0490207E039016
:10478000607E0290A07E0190E07E00906846FDF77A
:1047900023FB684601F0B2FD0546FDF7C1FEFDF7BB
:1047A000DDFE4AF2A5510420FCF774FAFDF7D6FEAF
:1047B000FDF726FD07B030BD0D0A52544320636F4C
:1047C0006E666967757265642062792053657276DA
:1047D00065722E2E2E2E0D0A000000007CB50546B7
:1047E0000C4605F5E1462146304601F0D1FED4E9FC
:1047F0000110CDE9000109A0D4E90332616900F09C
:104800005BFDA06818B9606808B9206810B10D4850
:10481000006810B100200B4908607CBD0D0A20BD66
:10482000F1CCECA3BA25302E32642D25302E326423
:104830002D25302E32642025302E32643A25302E3C
:10484000326400009000002070B50446FDF71AFEA7
:1048500005462146FFF7C2FF70BD0000044800680E
:1048600020B103480068401E0149086070470000FD
:104870007000002010B540F22551224800F035FBB1
:10488000002831D040F225511E4800F0EEFA1E48B3
:104890000078012825D01D480088A0F54071E7392F
:1048A00006D11BA000F008FD0020184908801BE07D
:1048B000144800F0D5FBC1B2144802880088401C9F
:1048C000124B18801A48815400BF20210D4800F077
:1048D0000CFB0128F9D0012016490870FFF712FDE2
:1048E00002E0084800F0BCFB0821064800F0F0FA9E
:1048F000012806D10821034800F0AEFA014800F073
:10490000AFFB10BD004C00407F000020760000206F
:104910000D0A5553415254342052656365697665DA
:1049200020427566662046756C6C21210D0A0000D8
:10493000A60900203D00002008B54FF4A060FDF757
:104940002BFB25208DF8000003208DF801000020AE
:104950008DF8020001208DF803006846FDF7E2FAA9
:1049600026208DF8000002208DF8010001208DF82E
:1049700002008DF803006846FDF7D4FA27208DF871
:10498000000003208DF8010000208DF802000120B6
:104990008DF803006846FDF7C5FA34208DF8000055
:1049A00001208DF8010000208DF8020001208DF813
:1049B00003006846FDF7B6FA08BD000000B585B0F3
:1049C000012144F20400FDF7F5FB4FF40070ADF84F
:1049D000100018208DF8130003208DF8120004A990
:1049E0002348FDF78CF84FF48060ADF810000420E8
:1049F0008DF8130004A91E48FDF781F84FF480706C
:104A0000ADF8100010208DF8130004A91848FDF728
:104A100076F84FF40060ADF8100010208DF8130008
:104A200004A91348FDF76BF84FF4165000900020CE
:104A3000ADF80400ADF80600ADF80800ADF80C00C4
:104A40000C20ADF80A0069460A4800F09DFA0122E0
:104A500040F22551074800F072FA40F226610548FD
:104A600000F003FA0121034800F00EFA05B000BD82
:104A7000000801400038014010B51C480088A0F52E
:104A80000071573905D11AA000F016FC0020174913
:104A9000088040F225511E4800F027FAB8B140F2D4
:104AA00025511B4800F0E1F9194800F0D9FA0F49E7
:104AB0000A880988491C0D4B1980164921F81200F3
:104AC00000BF2021124800F010FA0128F9D0082177
:104AD0000F4800F0FDF9012806D108210C4800F02C
:104AE000BBF90B4800F0BCFA10BD000032000020FA
:104AF0000D0A5553415254312052656365697665FC
:104B000020427566662046756C6C21210D0A0000F6
:104B1000003801401001002000B585B00121480493
:104B2000FDF728FB01210420FDF744FB0120ADF82F
:104B3000100028208DF8130004A92448FCF7DFFF9B
:104B40000420ADF8100018208DF8130003208DF814
:104B5000120004A91D48FCF7D2FF4020ADF8100058
:104B600010208DF8130004A91848FCF7C8FF4FF473
:104B7000165000900020ADF80400ADF80600ADF826
:104B80000800ADF80C000C20ADF80A00694610488A
:104B900000F0FAF9012240F225510D4800F0CFF95A
:104BA00040F226610A4800F060F90121084800F04F
:104BB0006BF90820ADF8100010208DF8130004A93F
:104BC0000248FCF79CFF05B000BD00000008014052
:104BD0000044004010B51C480078312805D11BA0C6
:104BE00000F06AFB00201849087040F225511F4868
:104BF00000F07BF9D0B140F225511C4800F035F9A6
:104C00001A4800F02DFAC1B20F4802780078401C13
:104C10000D4B18701648815400BF2021134800F036
:104C200064F90128F9D001201249087008210F48C1
:104C300000F04EF9012806D108210C4800F00CF9CB
:104C40000A4800F00DFA10BD3C0000200D0A555333
:104C5000415254322052656365697665204275661B
:104C6000662046756C6C21210D0A0000004400404E
:104C7000340000206400002000B585B001218804C4
:104C8000FDF778FA01211820FDF794FA4FF48060BF
:104C9000ADF8100018208DF8130003208DF81200D5
:104CA00004A91E48FCF72BFF4FF40060ADF810007C
:104CB00004208DF8130004A91848FCF720FF0820F1
:104CC000ADF8100010208DF8130004A91448FCF76B
:104CD00016FF4FF4165000900020ADF80400ADF818
:104CE0000600ADF80800ADF80C000C20ADF80A0085
:104CF00069460C4800F048F9012240F22551094864
:104D000000F01DF940F22661064800F0AEF80121DE
:104D1000044800F0B9F805B000BD0000000C0140E7
:104D2000001001400048004010B501210846FDF781
:104D300021FA40F22551184800F0D7F8D0B140F2DE
:104D40002551154800F091F8134800F089F9C1B2D7
:104D5000124802880088401C104B1880104881546B
:104D600000BF20210C4800F0C0F80128F9D0012034
:104D70000C4908700821084800F0AAF8012806D15B
:104D80000821054800F068F8034800F069F90020A0
:104D90000549086010BD0000004800407400002074
:104DA000BE0500203D0000205800002000B585B061
:104DB0000121C804FDF7DEF901211120FDF7FAF900
:104DC0008020ADF8100010208DF8130004A92048B1
:104DD000FCF795FE4FF48060ADF8100018208DF8B8
:104DE000130003208DF8120004A91948FCF787FE70
:104DF0004FF40060ADF8100004208DF8130004A9F2
:104E00001348FCF77CFE4FF4165000900020ADF8DC
:104E10000400ADF80600ADF80800ADF80C000C2059
:104E2000ADF80A0069460B4800F0AEF8012240F2E6
:104E30002551084800F083F840F22661054800F04B
:104E400014F80121034800F01FF805B000BD000070
:104E500000100140004C004001F40072B2F5007FE8
:104E600000D100BFCA430280704710B50022002362
:104E7000A1F510646A3C00D100BF0A1201249440DD
:104E8000A3B2DC43048010BD21B1828942F40052F8
:104E9000828104E082894DF6FF731A408281704757
:104EA0002DE9F04107460D46164600240CE0295D29
:104EB000384600F0DAF800BF4021384600F008F824
:104EC0000028F9D0601C84B2B442F0DBBDE8F08168
:104ED00002460020B1F5007F00D100BF13880B42CD
:104EE00001D0012000E00020704770B50246002488
:104EF000002300250020A1F510666A3E00D100BF06
:104F0000C1F3421501F01F03012606FA03F3012D38
:104F100002D19689334006E0022D02D1168A334031
:104F200001E0968A33400C12012606FA04F4168832
:104F3000344013B10CB1012000E0002070BDF0B589
:104F400003460024002600250020A1F510676A3FD3
:104F500000D100BF1846C1F3421401F01F0601271B
:104F600007FA06F5012C01D10C3004E0022C01D126
:104F7000103000E014301AB107682F43076002E0D8
:104F80000768AF430760F0BD2DE9F04786B00546DE
:104F90000E460024A24600BFA1460027B08900B1FA
:104FA00000BF2F462C8A4CF6FF700440F088044363
:104FB0002C82AC894EF6F3100440B0883189084346
:104FC000718908430443AC81AC8A4FF6FF4004402A
:104FD000B0890443AC8201A8FDF71CF91F48874241
:104FE00002D1DDF810A001E0DDF80CA0A88910F4D2
:104FF000004F08D00AEBCA0000EB0A1031684900E4
:10500000B0FBF1F807E00AEBCA0000EB0A103168C8
:105010008900B0FBF1F86420B8FBF0F0040120092E
:10502000642101FB1089A88910F4004F08D03220B8
:1050300000EBC900B0FBF1F000F00700044308E00A
:10504000322000EB09106421B0FBF1F000F00F00FA
:1050500004432C8106B0BDE8F08700000038014011
:1050600001468888C0F308007047C1F308028280B7
:10507000704770B504460020A4F807000925A07900
:105080002844C5B229462046FBF7F8FE06463046BE
:1050900001F0ECF90646A4F8076070BD2DE9F8436D
:1050A00004460E4600250027032E02D0042E41D1CF
:1050B0002FE0002500270EE0605D302802DB605DF8
:1050C000392806DD605D2E2802D1781CC7B200E0C9
:1050D00006E0681CC5B22046FBF76AF8A842EBD888
:1050E00000BF032F0DD12046FBF762F81FFA80F8AE
:1050F0002346002205211046CDF80080FCF7B0FBC6
:1051000002E00FA000F0D8F8012014498871BDE832
:10511000F8832046FBF74CF81FFA80F8234600225C
:1051200006211046CDF80080FCF79AFB01200B49C0
:105130008871ECE70AA000F0BFF80020E7E7000064
:105140000D0A496E70757420536572766572204938
:1051500050204552524F5221210D0A0028050020AF
:105160000D0A496E73747275637420436F64652011
:105170004552524F522021210D0A000010B503E084
:1051800003A000F099F800E0FAE700BF10BD0000AE
:105190000D0A5761726E6E696E6721212055736129
:1051A00067654661756C74204F6363757265640D45
:1051B0000A0000000020014908607047082C0040E8
:1051C00040F08001014A116070470000002C00404F
:1051D0000120014908607047A480054210B50848C5
:1051E000008800280ADD0748007800F03DF8FFF746
:1051F000E1FF03480088401E0149088010BD0000FF
:1052000028000020C4000020F8B506460C461546CC
:105210004FF4A060FCF7C0FE0121C802FCF7AAFF12
:105220001048007830400F490870284600F024F8F4
:10523000204600F02DF80B480078FFF7C1FF002052
:105240008DF800008DF801008DF8020001208DF826
:1052500003006846FCF766FEFFF7ACFFFFF7B8FFF8
:10526000F8BD0000C400002000F07F01014A116079
:1052700070470000002C00400021044A126822F40C
:10528000C0710143014A116070470000042C0040C6
:1052900008B5002100910749096821F07F010091BC
:1052A00000F07F01009A11430091024A00991160B9
:1052B00008BD0000042C00400FB4054B10B503A935
:1052C000044A029800F0DAF810BC5DF814FB000004
:1052D000F15B0008EC0000200FB41CB50A46521E1A
:1052E000CDE9000207A9054B6A46069800F0C6F80A
:1052F000009A002111701CBC5DF814FBC35B000810
:1053000002E008C8121F08C1002AFAD1704770478E
:10531000002001E001C1121F002AFBD170470000EC
:105320002DE9FF5FDDE90220010DDDF838B0024311
:1053300010D10F9801244CA2012808D00021009818
:105340000F9BC0E90021C0E90243BDE8FF9F6FEA5F
:105350000B01F4E7A1F2FF3144F6105041430D1464
:105360000F9801280ED0A5EB0B00401C4FF0000455
:105370003E4EDFF8FC90B0F1000AA04605DACAF113
:10538000000717E0CBF10000F0E7074612E0F8074E
:1053900007D02246334640464946FBF72DF8804663
:1053A00089462246334610461946FBF725F804463F
:1053B0000E467F10002FEAD1DDE90201BAF1000F9D
:1053C00042464B4602DAFBF717F801E0FBF786F896
:1053D00004460E460022274BFBF74AF903D84FF04C
:1053E000FF30014607E00022234B20463146FAF702
:1053F0005CFFFBF77AFA102409E0002C0ADB0A2292
:105400000023FBF77BF9019B30321A55641E50EAEA
:105410000102F2D1641C019AC4F1110314440F9AE1
:10542000012A09D00122084301D15B450FDD4FF06D
:10543000000205F101050DE0084303D1A3EB0B05C4
:105440006D1E09E000204FF0110B0F9088E701DA84
:1054500000226D1E002A83D000980F99C0E9023106
:10546000C0E9004571E70000300000000000244062
:105470000000F03F0000F0430000E03F2DE9FF4F47
:1054800095B09B4689460646002512E2252878D12C
:105490000024761CF94A2746012105943378203BE5
:1054A00001FA03F0104202D00443761CF6E730788C
:1054B0002A2811D06FF02F033078A0F13002092A8A
:1054C00016D8059A44F0020402EB820203EB420272
:1054D0001044761C0590EFE759F8042B0592002A3A
:1054E00003DA504244F40054059044F00204761C60
:1054F00030782E2816D116F8010F44F004042A281B
:105500000DD06FF02F023078A0F13003092B09D8AD
:1055100007EB870302EB4303C718761CF3E759F840
:10552000047B761C30786C280FD006DC4C2817D012
:1055300068280DD06A2814D104E0742810D07A2885
:105540000FD10DE044F400140AE044F4801401E0AB
:1055500044F440147278824202D1761C04F580141F
:10556000761C307866280BD013DC582877D009DCFD
:10557000002875D04528F6D04628F4D047281AD1FF
:105580009FE118E0632835D0642879D0652812D1CE
:1055900097E1702873D008DC6728F1D069286FD0B4
:1055A0006E280DD06F2806D1B5E073282CD0752851
:1055B00075D0782874D05A46179990476D1C76E1BB
:1055C000C4F30250022809D003280DD0D9F80010E6
:1055D00004280DD00D6009F1040968E1D9F8001024
:1055E000EA17C1E90052F6E7D9F800100D80F2E79A
:1055F0000D70F0E719F8041B8DF8001000208DF8ED
:105600000100EA46012003E059F804AB4FF0FF30F7
:1056100061074FF0000102D40DE008F10101884656
:10562000B9420FDA8045F8DB1AF808100029F4D1E6
:1056300008E008F1010188468142FADB1AF80810F7
:105640000029F6D105985B46A0EB080721463846AD
:10565000179A00F09EFA284400EB080507E04DE099
:105660002BE10DE01AF8010B5A4617999047B8F153
:105670000108F7D25B4621463846179A14E142E00A
:105680000A220092C4F302524FF0000A022A08D004
:1056900059F804CB032A4FEAEC710AD00DE029E057
:1056A0002AE009F1070121F00702F2E802C1914660
:1056B00009E00FFA8CFC4FEAEC71042A03D14FFA8F
:1056C0008CFC4FEAEC71002907DA0A460021DCF174
:1056D000000C61EB02012D2202E0220504D52B22F1
:1056E0008DF80420012203E0E20701D02022F7E731
:1056F000904653E00A2102E010220DE010214FF005
:10570000000A00910BE010224FF0000A44F004045C
:105710000827009203E008224FF0000A0092C4F329
:105720000252022A05D059F804CB0021032A08D0DE
:1057300009E009F1070121F00702F2E802C19146F0
:1057400005E01FFA8CFC042A01D10CF0FF0C4FF08D
:105750000008220722D5702827D0009B83F0100371
:1057600053EA0A0309D15CEA010206D030228DF81F
:1057700004208DF8050002229046009B83F0080368
:1057800053EA0A030AD15CEA010201D1620705D596
:1057900030228DF804204FF001087F1E582809D0D0
:1057A00037A003900EA8029013E040228DF8042049
:1057B0000122E1E737A0F4E753466046009AFAF782
:1057C0009DFF84460398825C0298A0F1010002903C
:1057D00002705CEA0100EFD1029806A9A1EB00007B
:1057E00000F1200A600702D524F4803400E001278C
:1057F000574502DDA7EB0A0000E0002000EB0A019C
:10580000009005984144A0EB01000590E00306D408
:105810005B462146179A059800F0BBF9054400271E
:1058200006E001A85A46C05D179990476D1C7F1C81
:105830004745F6DBE0030CD55B462146179A0598F1
:1058400000F0A7F9054404E030205A461799904724
:105850006D1C0099481E00900029F5DC08E00298B4
:1058600002995A460078491C0291179990476D1C7D
:10587000BAF10001AAF1010AF1DC6BE1092801008B
:1058800030313233343536373839616263646566B6
:105890000000000030313233343536373839414278
:1058A000434445460000000000F060F9054406F15D
:1058B0000106307800287FF4E9AD19B02846BDE82C
:1058C000F08F620700D4062709F1070222F0070CC7
:1058D000FCE80223E14603F000485FEA080C02D02E
:1058E0000FF27C2C0DE05FEA045C02D50FF2742C01
:1058F00007E05FEAC47C02D00FF26C2C01E0AFF24B
:10590000700C4FF0FF3823F00043CDF850C06528ED
:105910000CD006DC452809D046281DD047283ED1AA
:105920003EE0662818D0672839D139E00021112FD0
:1059300001DB112000E0781CCDE9000106A90EA8CA
:10594000FFF7EEFCDDE90F010E9A039100210092B2
:1059500007F1010A04914EE04FF000400097CDE9B5
:10596000011006A90EA8FFF7DBFCDDE90F02039288
:105970000E9B11990022DDF80CA00093049219B936
:1059800007F1010100EB010AB7EB0A0004D4C0F1F2
:10599000FF3007F1010A0490AAEB0700019046E0EE
:1059A000012F00DA01270021112F01DD112000E075
:1059B0003846CDE9000106A90EA8FFF7B1FCDDE9E4
:1059C0000F010E9A0391002104910092BA4621071B
:1059D0000CD40399514500DA8A46BAF1010F05DD6E
:1059E000009AAAF10101515C302908D0B84202DACC
:1059F00010F1040F06DA0121CDE9011017E0AAF138
:105A00000101E9E7002805DC049901440491AAEBAF
:105A1000000102E0411C514500DD8A460499A0EBDB
:105A2000010000F1010001904FF0004002902007BA
:105A300004D40198504501DBCDF8048000208DF896
:105A40004F0002980DF14F07B0F1004F25D02B20E9
:105A50000E9002984FF0020800280CDA40420290A3
:105A60002D200E9007E00A210298FAF731FE30311E
:105A7000029007F8011DB8F10001A8F10108F2DC5D
:105A800002980028EFD1791E0E980870307800F047
:105A9000200040F0450007F8020D12A8A0EB070017
:105AA00000F107081498007800B1012000EB0A010A
:105AB000019801EBE07105984144A0EB0100A0F1D1
:105AC00001000590E00306D45B462146179A05982D
:105AD00000F05FF805441498007820B15A461799F1
